{
  "_format": "hh-sol-artifact-1",
  "contractName": "MerkleTreeWithHistory",
  "sourceName": "contracts/zk/MerkleTreeWithHistory.sol",
  "abi": [
    {
      "inputs": [
        {
          "internalType": "uint32",
          "name": "_levels",
          "type": "uint32"
        },
        {
          "internalType": "contract IHasher",
          "name": "_hasher",
          "type": "address"
        }
      ],
      "stateMutability": "nonpayable",
      "type": "constructor"
    },
    {
      "inputs": [],
      "name": "FIELD_SIZE",
      "outputs": [
        {
          "internalType": "uint256",
          "name": "",
          "type": "uint256"
        }
      ],
      "stateMutability": "view",
      "type": "function"
    },
    {
      "inputs": [],
      "name": "ROOT_HISTORY_SIZE",
      "outputs": [
        {
          "internalType": "uint32",
          "name": "",
          "type": "uint32"
        }
      ],
      "stateMutability": "view",
      "type": "function"
    },
    {
      "inputs": [],
      "name": "ZERO_VALUE",
      "outputs": [
        {
          "internalType": "uint256",
          "name": "",
          "type": "uint256"
        }
      ],
      "stateMutability": "view",
      "type": "function"
    },
    {
      "inputs": [],
      "name": "currentRootIndex",
      "outputs": [
        {
          "internalType": "uint32",
          "name": "",
          "type": "uint32"
        }
      ],
      "stateMutability": "view",
      "type": "function"
    },
    {
      "inputs": [
        {
          "internalType": "uint256",
          "name": "",
          "type": "uint256"
        }
      ],
      "name": "filledSubtrees",
      "outputs": [
        {
          "internalType": "bytes32",
          "name": "",
          "type": "bytes32"
        }
      ],
      "stateMutability": "view",
      "type": "function"
    },
    {
      "inputs": [],
      "name": "getLastRoot",
      "outputs": [
        {
          "internalType": "bytes32",
          "name": "",
          "type": "bytes32"
        }
      ],
      "stateMutability": "view",
      "type": "function"
    },
    {
      "inputs": [
        {
          "internalType": "contract IHasher",
          "name": "_hasher",
          "type": "address"
        },
        {
          "internalType": "bytes32",
          "name": "_left",
          "type": "bytes32"
        },
        {
          "internalType": "bytes32",
          "name": "_right",
          "type": "bytes32"
        }
      ],
      "name": "hashLeftRight",
      "outputs": [
        {
          "internalType": "bytes32",
          "name": "",
          "type": "bytes32"
        }
      ],
      "stateMutability": "pure",
      "type": "function"
    },
    {
      "inputs": [],
      "name": "hasher",
      "outputs": [
        {
          "internalType": "contract IHasher",
          "name": "",
          "type": "address"
        }
      ],
      "stateMutability": "view",
      "type": "function"
    },
    {
      "inputs": [
        {
          "internalType": "bytes32",
          "name": "_root",
          "type": "bytes32"
        }
      ],
      "name": "isKnownRoot",
      "outputs": [
        {
          "internalType": "bool",
          "name": "",
          "type": "bool"
        }
      ],
      "stateMutability": "view",
      "type": "function"
    },
    {
      "inputs": [],
      "name": "levels",
      "outputs": [
        {
          "internalType": "uint32",
          "name": "",
          "type": "uint32"
        }
      ],
      "stateMutability": "view",
      "type": "function"
    },
    {
      "inputs": [],
      "name": "nextIndex",
      "outputs": [
        {
          "internalType": "uint32",
          "name": "",
          "type": "uint32"
        }
      ],
      "stateMutability": "view",
      "type": "function"
    },
    {
      "inputs": [
        {
          "internalType": "uint256",
          "name": "",
          "type": "uint256"
        }
      ],
      "name": "roots",
      "outputs": [
        {
          "internalType": "bytes32",
          "name": "",
          "type": "bytes32"
        }
      ],
      "stateMutability": "view",
      "type": "function"
    },
    {
      "inputs": [
        {
          "internalType": "uint256",
          "name": "i",
          "type": "uint256"
        }
      ],
      "name": "zeros",
      "outputs": [
        {
          "internalType": "bytes32",
          "name": "",
          "type": "bytes32"
        }
      ],
      "stateMutability": "pure",
      "type": "function"
    }
  ],
  "bytecode": "0x60a06040526000600360006101000a81548163ffffffff021916908363ffffffff1602179055506000600360046101000a81548163ffffffff021916908363ffffffff16021790555034801561005457600080fd5b50604051611e3b380380611e3b83398181016040528101906100769190610942565b60008263ffffffff16116100bf576040517f08c379a00000000000000000000000000000000000000000000000000000000081526004016100b690610a05565b60405180910390fd5b60208263ffffffff1610610108576040517f08c379a00000000000000000000000000000000000000000000000000000000081526004016100ff90610a71565b60405180910390fd5b816000806101000a81548163ffffffff021916908363ffffffff1602179055508073ffffffffffffffffffffffffffffffffffffffff1660808173ffffffffffffffffffffffffffffffffffffffff168152505060005b8263ffffffff168163ffffffff1610156101b2576101888163ffffffff166101f260201b60201c565b600160008363ffffffff16815260200190815260200160002081905550808060010191505061015f565b506101d46001836101c39190610ac0565b63ffffffff166101f260201b60201c565b60026000808152602001908152602001600020819055505050610b64565b6000808203610226577f2fe54c60d3acabf3343a35b6eba15db4821b340f76e741e2249685ed4899af6c60001b905061088c565b60018203610259577f256a6135777eee2fd26f54b8b7037a25439d5235caee224154186d2b8a52e31d60001b905061088c565b6002820361028c577f1151949895e82ab19924de92c40a3d6f7bcb60d92b00504b8199613683f0c20060001b905061088c565b600382036102bf577f20121ee811489ff8d61f09fb89e313f14959a0f28bb428a20dba6b0b068b3bdb60001b905061088c565b600482036102f2577f0a89ca6ffa14cc462cfedb842c30ed221a50a3d6bf022a6a57dc82ab24c157c960001b905061088c565b60058203610325577f24ca05c2b5cd42e890d6be94c68d0689f4f21c9cec9c0f13fe41d566dfb5495960001b905061088c565b60068203610358577f1ccb97c932565a92c60156bdba2d08f3bf1377464e025cee765679e604a7315c60001b905061088c565b6007820361038b577f19156fbd7d1a8bf5cba8909367de1b624534ebab4f0f79e003bccdd1b182bdb460001b905061088c565b600882036103be577f261af8c1f0912e465744641409f622d466c3920ac6e5ff37e36604cb11dfff8060001b905061088c565b600982036103f0577e58459724ff6ca5a1652fcbc3e82b93895cf08e975b19beab3f54c217d1c00760001b905061088c565b600a8203610423577f1f04ef20dee48d39984d8eabe768a70eafa6310ad20849d4573c3c40c2ad1e3060001b905061088c565b600b8203610456577f1bea3dec5dab51567ce7e200a30f7ba6d4276aeaa53e2686f962a46c66d511e560001b905061088c565b600c8203610489577f0ee0f941e2da4b9e31c3ca97a40d8fa9ce68d97c084177071b3cb46cd3372f0f60001b905061088c565b600d82036104bc577f1ca9503e8935884501bbaf20be14eb4c46b89772c97b96e3b2ebf3a36a948bbd60001b905061088c565b600e82036104ef577f133a80e30697cd55d8f7d4b0965b7be24057ba5dc3da898ee2187232446cb10860001b905061088c565b600f8203610522577f13e6d8fc88839ed76e182c2a779af5b2c0da9dd18c90427a644f7e148a6253b660001b905061088c565b60108203610555577f1eb16b057a477f4bc8f572ea6bee39561098f78f15bfb3699dcbb7bd8db6185460001b905061088c565b60118203610588577f0da2cb16a1ceaabf1c16b838f7a9e3f2a3a3088d9e0a6debaa748114620696ea60001b905061088c565b601282036105bb577f24a3b3d822420b14b5d8cb6c28a574f01e98ea9e940551d2ebd75cee12649f9d60001b905061088c565b601382036105ee577f198622acbd783d1b0d9064105b1fc8e4d8889de95c4c519b3f635809fe6afc0560001b905061088c565b60148203610621577f29d7ed391256ccc3ea596c86e933b89ff339d25ea8ddced975ae2fe30b5296d460001b905061088c565b60158203610654577f19be59f2f0413ce78c0c3703a3a5451b1d7f39629fa33abd11548a76065b296760001b905061088c565b60168203610687577f1ff3f61797e538b70e619310d33f2a063e7eb59104e112e95738da1254dc345360001b905061088c565b601782036106ba577f10c16ae9959cf8358980d9dd9616e48228737310a10e2b6b731c1a548f036c4860001b905061088c565b601882036106ed577f0ba433a63174a90ac20992e75e3095496812b652685b5e1a2eae0b1bf4e8fcd160001b905061088c565b60198203610720577f019ddb9df2bc98d987d0dfeca9d2b643deafab8f7036562e627c3667266a044c60001b905061088c565b601a8203610753577f2d3c88b23175c5a5565db928414c66d1912b11acf974b2e644caaac04739ce9960001b905061088c565b601b8203610786577f2eab55f6ae4e66e32c5189eed5c470840863445760f5ed7e7b69b2a62600f35460001b905061088c565b601c82036107b8577e2df37a2642621802383cf952bf4dd1f32e05433beeb1fd41031fb7eace979d60001b905061088c565b601d82036107eb577f104aeb41435db66c3e62feccc1d6f5d98d0a0ed75d1374db457cf462e3a1f42760001b905061088c565b601e820361081e577f1f3c6fd858e9a7d4b0d1f38e256a09d81d5a5e3c963987e2d4b814cfab7c6ebb60001b905061088c565b601f8203610851577f2c7a07d20dff79d01fecedc1134284a8d08436606c93693b67e333f671bf69cc60001b905061088c565b6040517f08c379a000000000000000000000000000000000000000000000000000000000815260040161088390610b44565b60405180910390fd5b919050565b600080fd5b600063ffffffff82169050919050565b6108af81610896565b81146108ba57600080fd5b50565b6000815190506108cc816108a6565b92915050565b600073ffffffffffffffffffffffffffffffffffffffff82169050919050565b60006108fd826108d2565b9050919050565b600061090f826108f2565b9050919050565b61091f81610904565b811461092a57600080fd5b50565b60008151905061093c81610916565b92915050565b6000806040838503121561095957610958610891565b5b6000610967858286016108bd565b92505060206109788582860161092d565b9150509250929050565b600082825260208201905092915050565b7f5f6c6576656c732073686f756c642062652067726561746572207468616e207a60008201527f65726f0000000000000000000000000000000000000000000000000000000000602082015250565b60006109ef602383610982565b91506109fa82610993565b604082019050919050565b60006020820190508181036000830152610a1e816109e2565b9050919050565b7f5f6c6576656c732073686f756c64206265206c657373207468616e2033320000600082015250565b6000610a5b601e83610982565b9150610a6682610a25565b602082019050919050565b60006020820190508181036000830152610a8a81610a4e565b9050919050565b7f4e487b7100000000000000000000000000000000000000000000000000000000600052601160045260246000fd5b6000610acb82610896565b9150610ad683610896565b9250828203905063ffffffff811115610af257610af1610a91565b5b92915050565b7f496e646578206f7574206f6620626f756e647300000000000000000000000000600082015250565b6000610b2e601383610982565b9150610b3982610af8565b602082019050919050565b60006020820190508181036000830152610b5d81610b21565b9050919050565b6080516112bc610b7f6000396000610cdc01526112bc6000f3fe608060405234801561001057600080fd5b50600436106100cf5760003560e01c8063c2b40ae41161008c578063ec73295911610066578063ec7329591461022a578063ed33639f14610248578063f178e47c14610266578063fc7e9c6f14610296576100cf565b8063c2b40ae4146101ac578063cd87a3b4146101dc578063e8295588146101fa576100cf565b8063414a37ba146100d45780634ecf518b146100f25780636d9833e3146101105780638ea3099e1461014057806390eeb02b14610170578063ba70f7571461018e575b600080fd5b6100dc6102b4565b6040516100e99190610d45565b60405180910390f35b6100fa6102d8565b6040516101079190610d7f565b60405180910390f35b61012a60048036038101906101259190610dd5565b6102ec565b6040516101379190610e1d565b60405180910390f35b61015a60048036038101906101559190610ea8565b610389565b6040516101679190610f0a565b60405180910390f35b6101786105b1565b6040516101859190610d7f565b60405180910390f35b6101966105c7565b6040516101a39190610f0a565b60405180910390f35b6101c660048036038101906101c19190610f51565b6105fa565b6040516101d39190610f0a565b60405180910390f35b6101e4610612565b6040516101f19190610d7f565b60405180910390f35b610214600480360381019061020f9190610f51565b610617565b6040516102219190610f0a565b60405180910390f35b610232610cb6565b60405161023f9190610d45565b60405180910390f35b610250610cda565b60405161025d9190610fdd565b60405180910390f35b610280600480360381019061027b9190610f51565b610cfe565b60405161028d9190610f0a565b60405180910390f35b61029e610d16565b6040516102ab9190610d7f565b60405180910390f35b7f30644e72e131a029b85045b68181585d2833e84879b9709143e1f593f000000181565b60008054906101000a900463ffffffff1681565b60008060001b82036103015760009050610384565b6000600360009054906101000a900463ffffffff16905060008190505b600260008263ffffffff16815260200190815260200160002054840361034957600192505050610384565b60008163ffffffff160361035c57601e90505b808061036790611027565b9150508163ffffffff168163ffffffff160361031e576000925050505b919050565b60007f30644e72e131a029b85045b68181585d2833e84879b9709143e1f593f00000018360001c106103f0576040517f08c379a00000000000000000000000000000000000000000000000000000000081526004016103e7906110ad565b60405180910390fd5b7f30644e72e131a029b85045b68181585d2833e84879b9709143e1f593f00000018260001c10610455576040517f08c379a000000000000000000000000000000000000000000000000000000000815260040161044c9061113f565b60405180910390fd5b60008360001c90506000808673ffffffffffffffffffffffffffffffffffffffff16633f1a11878484846040518463ffffffff1660e01b815260040161049d9392919061115f565b6040805180830381865afa1580156104b9573d6000803e3d6000fd5b505050506040513d601f19601f820116820180604052508101906104dd91906111ab565b80935081945050507f30644e72e131a029b85045b68181585d2833e84879b9709143e1f593f000000180610514576105136111eb565b5b8560001c840892508673ffffffffffffffffffffffffffffffffffffffff16633f1a11878484846040518463ffffffff1660e01b81526004016105599392919061115f565b6040805180830381865afa158015610575573d6000803e3d6000fd5b505050506040513d601f19601f8201168201806040525081019061059991906111ab565b80935081945050508260001b93505050509392505050565b600360009054906101000a900463ffffffff1681565b600060026000600360009054906101000a900463ffffffff1663ffffffff16815260200190815260200160002054905090565b60026020528060005260406000206000915090505481565b601e81565b600080820361064b577f2fe54c60d3acabf3343a35b6eba15db4821b340f76e741e2249685ed4899af6c60001b9050610cb1565b6001820361067e577f256a6135777eee2fd26f54b8b7037a25439d5235caee224154186d2b8a52e31d60001b9050610cb1565b600282036106b1577f1151949895e82ab19924de92c40a3d6f7bcb60d92b00504b8199613683f0c20060001b9050610cb1565b600382036106e4577f20121ee811489ff8d61f09fb89e313f14959a0f28bb428a20dba6b0b068b3bdb60001b9050610cb1565b60048203610717577f0a89ca6ffa14cc462cfedb842c30ed221a50a3d6bf022a6a57dc82ab24c157c960001b9050610cb1565b6005820361074a577f24ca05c2b5cd42e890d6be94c68d0689f4f21c9cec9c0f13fe41d566dfb5495960001b9050610cb1565b6006820361077d577f1ccb97c932565a92c60156bdba2d08f3bf1377464e025cee765679e604a7315c60001b9050610cb1565b600782036107b0577f19156fbd7d1a8bf5cba8909367de1b624534ebab4f0f79e003bccdd1b182bdb460001b9050610cb1565b600882036107e3577f261af8c1f0912e465744641409f622d466c3920ac6e5ff37e36604cb11dfff8060001b9050610cb1565b60098203610815577e58459724ff6ca5a1652fcbc3e82b93895cf08e975b19beab3f54c217d1c00760001b9050610cb1565b600a8203610848577f1f04ef20dee48d39984d8eabe768a70eafa6310ad20849d4573c3c40c2ad1e3060001b9050610cb1565b600b820361087b577f1bea3dec5dab51567ce7e200a30f7ba6d4276aeaa53e2686f962a46c66d511e560001b9050610cb1565b600c82036108ae577f0ee0f941e2da4b9e31c3ca97a40d8fa9ce68d97c084177071b3cb46cd3372f0f60001b9050610cb1565b600d82036108e1577f1ca9503e8935884501bbaf20be14eb4c46b89772c97b96e3b2ebf3a36a948bbd60001b9050610cb1565b600e8203610914577f133a80e30697cd55d8f7d4b0965b7be24057ba5dc3da898ee2187232446cb10860001b9050610cb1565b600f8203610947577f13e6d8fc88839ed76e182c2a779af5b2c0da9dd18c90427a644f7e148a6253b660001b9050610cb1565b6010820361097a577f1eb16b057a477f4bc8f572ea6bee39561098f78f15bfb3699dcbb7bd8db6185460001b9050610cb1565b601182036109ad577f0da2cb16a1ceaabf1c16b838f7a9e3f2a3a3088d9e0a6debaa748114620696ea60001b9050610cb1565b601282036109e0577f24a3b3d822420b14b5d8cb6c28a574f01e98ea9e940551d2ebd75cee12649f9d60001b9050610cb1565b60138203610a13577f198622acbd783d1b0d9064105b1fc8e4d8889de95c4c519b3f635809fe6afc0560001b9050610cb1565b60148203610a46577f29d7ed391256ccc3ea596c86e933b89ff339d25ea8ddced975ae2fe30b5296d460001b9050610cb1565b60158203610a79577f19be59f2f0413ce78c0c3703a3a5451b1d7f39629fa33abd11548a76065b296760001b9050610cb1565b60168203610aac577f1ff3f61797e538b70e619310d33f2a063e7eb59104e112e95738da1254dc345360001b9050610cb1565b60178203610adf577f10c16ae9959cf8358980d9dd9616e48228737310a10e2b6b731c1a548f036c4860001b9050610cb1565b60188203610b12577f0ba433a63174a90ac20992e75e3095496812b652685b5e1a2eae0b1bf4e8fcd160001b9050610cb1565b60198203610b45577f019ddb9df2bc98d987d0dfeca9d2b643deafab8f7036562e627c3667266a044c60001b9050610cb1565b601a8203610b78577f2d3c88b23175c5a5565db928414c66d1912b11acf974b2e644caaac04739ce9960001b9050610cb1565b601b8203610bab577f2eab55f6ae4e66e32c5189eed5c470840863445760f5ed7e7b69b2a62600f35460001b9050610cb1565b601c8203610bdd577e2df37a2642621802383cf952bf4dd1f32e05433beeb1fd41031fb7eace979d60001b9050610cb1565b601d8203610c10577f104aeb41435db66c3e62feccc1d6f5d98d0a0ed75d1374db457cf462e3a1f42760001b9050610cb1565b601e8203610c43577f1f3c6fd858e9a7d4b0d1f38e256a09d81d5a5e3c963987e2d4b814cfab7c6ebb60001b9050610cb1565b601f8203610c76577f2c7a07d20dff79d01fecedc1134284a8d08436606c93693b67e333f671bf69cc60001b9050610cb1565b6040517f08c379a0000000000000000000000000000000000000000000000000000000008152600401610ca890611266565b60405180910390fd5b919050565b7f2fe54c60d3acabf3343a35b6eba15db4821b340f76e741e2249685ed4899af6c81565b7f000000000000000000000000000000000000000000000000000000000000000081565b60016020528060005260406000206000915090505481565b600360049054906101000a900463ffffffff1681565b6000819050919050565b610d3f81610d2c565b82525050565b6000602082019050610d5a6000830184610d36565b92915050565b600063ffffffff82169050919050565b610d7981610d60565b82525050565b6000602082019050610d946000830184610d70565b92915050565b600080fd5b6000819050919050565b610db281610d9f565b8114610dbd57600080fd5b50565b600081359050610dcf81610da9565b92915050565b600060208284031215610deb57610dea610d9a565b5b6000610df984828501610dc0565b91505092915050565b60008115159050919050565b610e1781610e02565b82525050565b6000602082019050610e326000830184610e0e565b92915050565b600073ffffffffffffffffffffffffffffffffffffffff82169050919050565b6000610e6382610e38565b9050919050565b6000610e7582610e58565b9050919050565b610e8581610e6a565b8114610e9057600080fd5b50565b600081359050610ea281610e7c565b92915050565b600080600060608486031215610ec157610ec0610d9a565b5b6000610ecf86828701610e93565b9350506020610ee086828701610dc0565b9250506040610ef186828701610dc0565b9150509250925092565b610f0481610d9f565b82525050565b6000602082019050610f1f6000830184610efb565b92915050565b610f2e81610d2c565b8114610f3957600080fd5b50565b600081359050610f4b81610f25565b92915050565b600060208284031215610f6757610f66610d9a565b5b6000610f7584828501610f3c565b91505092915050565b6000819050919050565b6000610fa3610f9e610f9984610e38565b610f7e565b610e38565b9050919050565b6000610fb582610f88565b9050919050565b6000610fc782610faa565b9050919050565b610fd781610fbc565b82525050565b6000602082019050610ff26000830184610fce565b92915050565b7f4e487b7100000000000000000000000000000000000000000000000000000000600052601160045260246000fd5b600061103282610d60565b91506000820361104557611044610ff8565b5b600182039050919050565b600082825260208201905092915050565b7f5f6c6566742073686f756c6420626520696e7369646520746865206669656c64600082015250565b6000611097602083611050565b91506110a282611061565b602082019050919050565b600060208201905081810360008301526110c68161108a565b9050919050565b7f5f72696768742073686f756c6420626520696e7369646520746865206669656c60008201527f6400000000000000000000000000000000000000000000000000000000000000602082015250565b6000611129602183611050565b9150611134826110cd565b604082019050919050565b600060208201905081810360008301526111588161111c565b9050919050565b60006060820190506111746000830186610d36565b6111816020830185610d36565b61118e6040830184610d36565b949350505050565b6000815190506111a581610f25565b92915050565b600080604083850312156111c2576111c1610d9a565b5b60006111d085828601611196565b92505060206111e185828601611196565b9150509250929050565b7f4e487b7100000000000000000000000000000000000000000000000000000000600052601260045260246000fd5b7f496e646578206f7574206f6620626f756e647300000000000000000000000000600082015250565b6000611250601383611050565b915061125b8261121a565b602082019050919050565b6000602082019050818103600083015261127f81611243565b905091905056fea2646970667358221220c655c252d838ba5d09c85a877b468ec9bd80735305bb039fad802b47f2d355af64736f6c634300081b0033",
  "linkReferences": {},
  "deployedLinkReferences": {}
}