{
  "_format": "hh-sol-artifact-1",
  "contractName": "XMR_ETH",
  "sourceName": "contracts/Master.sol",
  "abi": [
    {
      "inputs": [],
      "name": "ReentrancyGuardReentrantCall",
      "type": "error"
    },
    {
      "anonymous": false,
      "inputs": [],
      "name": "DontHaveMoneroAddress",
      "type": "event"
    },
    {
      "anonymous": false,
      "inputs": [
        {
          "indexed": false,
          "internalType": "uint256",
          "name": "withdrawalAmount",
          "type": "uint256"
        }
      ],
      "name": "EthSentEvent",
      "type": "event"
    },
    {
      "anonymous": false,
      "inputs": [
        {
          "indexed": false,
          "internalType": "string",
          "name": "moneroAddress",
          "type": "string"
        }
      ],
      "name": "HaveMoneroAddress",
      "type": "event"
    },
    {
      "anonymous": false,
      "inputs": [
        {
          "indexed": false,
          "internalType": "uint256",
          "name": "amountReceived",
          "type": "uint256"
        }
      ],
      "name": "MoneroReceived",
      "type": "event"
    },
    {
      "anonymous": false,
      "inputs": [
        {
          "indexed": false,
          "internalType": "uint256",
          "name": "amount",
          "type": "uint256"
        },
        {
          "indexed": true,
          "internalType": "address",
          "name": "recipient",
          "type": "address"
        }
      ],
      "name": "SwapCompleted",
      "type": "event"
    },
    {
      "anonymous": false,
      "inputs": [
        {
          "indexed": false,
          "internalType": "string",
          "name": "errorMessage",
          "type": "string"
        }
      ],
      "name": "SwapFailed",
      "type": "event"
    },
    {
      "inputs": [],
      "name": "AddressGenerationFailure",
      "outputs": [],
      "stateMutability": "nonpayable",
      "type": "function"
    },
    {
      "inputs": [
        {
          "internalType": "string",
          "name": "_moneroAddress",
          "type": "string"
        }
      ],
      "name": "AddressGenerationSuccess",
      "outputs": [],
      "stateMutability": "nonpayable",
      "type": "function"
    },
    {
      "inputs": [
        {
          "internalType": "string",
          "name": "errorMessage",
          "type": "string"
        }
      ],
      "name": "SwapFailureConfirmation",
      "outputs": [],
      "stateMutability": "nonpayable",
      "type": "function"
    },
    {
      "inputs": [
        {
          "internalType": "uint256",
          "name": "amountReceived",
          "type": "uint256"
        }
      ],
      "name": "TransmitMoneroReceived",
      "outputs": [],
      "stateMutability": "nonpayable",
      "type": "function"
    },
    {
      "inputs": [
        {
          "internalType": "address",
          "name": "_withdrawalAddress",
          "type": "address"
        },
        {
          "internalType": "address payable",
          "name": "_master",
          "type": "address"
        },
        {
          "internalType": "address",
          "name": "_oracle",
          "type": "address"
        }
      ],
      "name": "initialize",
      "outputs": [],
      "stateMutability": "nonpayable",
      "type": "function"
    },
    {
      "inputs": [],
      "name": "moneroAddress",
      "outputs": [
        {
          "internalType": "string",
          "name": "",
          "type": "string"
        }
      ],
      "stateMutability": "view",
      "type": "function"
    },
    {
      "inputs": [],
      "name": "oracle",
      "outputs": [
        {
          "internalType": "address",
          "name": "",
          "type": "address"
        }
      ],
      "stateMutability": "view",
      "type": "function"
    },
    {
      "inputs": [],
      "name": "withdrawalAddress",
      "outputs": [
        {
          "internalType": "address",
          "name": "",
          "type": "address"
        }
      ],
      "stateMutability": "view",
      "type": "function"
    },
    {
      "inputs": [],
      "name": "withdrawalConfirmation",
      "outputs": [
        {
          "internalType": "address",
          "name": "",
          "type": "address"
        }
      ],
      "stateMutability": "view",
      "type": "function"
    }
  ],
  "bytecode": "0x6080604052348015600f57600080fd5b506001600081905550611551806100276000396000f3fe608060405234801561001057600080fd5b50600436106100935760003560e01c80637dc0d1d0116100665780637dc0d1d0146100f8578063c0c53b8b14610116578063c66e903a14610132578063e4fd6a6c1461014e578063f2bcd0221461016c57610093565b806306bff32e14610098578063308e39f4146100b65780636ccfcb10146100d257806378ef5ffe146100dc575b600080fd5b6100a061018a565b6040516100ad9190610a8c565b60405180910390f35b6100d060048036038101906100cb9190610af8565b610218565b005b6100da61049e565b005b6100f660048036038101906100f19190610c5a565b6105d7565b005b61010061071c565b60405161010d9190610ce4565b60405180910390f35b610130600480360381019061012b9190610d69565b610742565b005b61014c60048036038101906101479190610c5a565b61080a565b005b610156610960565b6040516101639190610ce4565b60405180910390f35b610174610986565b6040516101819190610ce4565b60405180910390f35b6001805461019790610deb565b80601f01602080910402602001604051908101604052809291908181526020018280546101c390610deb565b80156102105780601f106101e557610100808354040283529160200191610210565b820191906000526020600020905b8154815290600101906020018083116101f357829003601f168201915b505050505081565b600560009054906101000a900473ffffffffffffffffffffffffffffffffffffffff1673ffffffffffffffffffffffffffffffffffffffff163373ffffffffffffffffffffffffffffffffffffffff16146102a8576040517f08c379a000000000000000000000000000000000000000000000000000000000815260040161029f90610e68565b60405180910390fd5b6102b06109ac565b600560179054906101000a900460ff1615610300576040517f08c379a00000000000000000000000000000000000000000000000000000000081526004016102f790610efa565b60405180910390fd5b60008111610343576040517f08c379a000000000000000000000000000000000000000000000000000000000815260040161033a90610f8c565b60405180910390fd5b7f2ce4322fe29e83ca8758b93053add080d7b235b60aaa34225b6e5e98a12d09b6816040516103729190610fbb565b60405180910390a16000600460009054906101000a900473ffffffffffffffffffffffffffffffffffffffff1673ffffffffffffffffffffffffffffffffffffffff1663d2007f1083600260009054906101000a900473ffffffffffffffffffffffffffffffffffffffff166040518363ffffffff1660e01b81526004016103fb929190610fd6565b6020604051808303816000875af115801561041a573d6000803e3d6000fd5b505050506040513d601f19601f8201168201806040525081019061043e9190611014565b90507f53650e0823299d203d2fada15301ffd630efbcf6d7055d373dc04202491bc4648160405161046f9190610fbb565b60405180910390a16001600560176101000a81548160ff0219169083151502179055505061049b6109f2565b50565b600560009054906101000a900473ffffffffffffffffffffffffffffffffffffffff1673ffffffffffffffffffffffffffffffffffffffff163373ffffffffffffffffffffffffffffffffffffffff161461052e576040517f08c379a000000000000000000000000000000000000000000000000000000000815260040161052590610e68565b60405180910390fd5b6105366109ac565b600560169054906101000a900460ff1615610586576040517f08c379a000000000000000000000000000000000000000000000000000000000815260040161057d906110b3565b60405180910390fd5b7f4f841aea6a8b78601596ad9b737ffe9a7393de75534c533f41b35f8b1ff0ba8c60405160405180910390a16001600560166101000a81548160ff0219169083151502179055506105d56109f2565b565b600560009054906101000a900473ffffffffffffffffffffffffffffffffffffffff1673ffffffffffffffffffffffffffffffffffffffff163373ffffffffffffffffffffffffffffffffffffffff1614610667576040517f08c379a000000000000000000000000000000000000000000000000000000000815260040161065e90610e68565b60405180910390fd5b61066f6109ac565b600560149054906101000a900460ff16156106bf576040517f08c379a00000000000000000000000000000000000000000000000000000000081526004016106b690611145565b60405180910390fd5b7f4ecb9b6d2e2efee3f1b1b86927f5895fc3f627ac91d5ebfe344df8ae1eec0723816040516106ee9190610a8c565b60405180910390a16001600560146101000a81548160ff0219169083151502179055506107196109f2565b50565b600560009054906101000a900473ffffffffffffffffffffffffffffffffffffffff1681565b82600260006101000a81548173ffffffffffffffffffffffffffffffffffffffff021916908373ffffffffffffffffffffffffffffffffffffffff16021790555081600460006101000a81548173ffffffffffffffffffffffffffffffffffffffff021916908373ffffffffffffffffffffffffffffffffffffffff16021790555080600560006101000a81548173ffffffffffffffffffffffffffffffffffffffff021916908373ffffffffffffffffffffffffffffffffffffffff160217905550505050565b600560009054906101000a900473ffffffffffffffffffffffffffffffffffffffff1673ffffffffffffffffffffffffffffffffffffffff163373ffffffffffffffffffffffffffffffffffffffff161461089a576040517f08c379a000000000000000000000000000000000000000000000000000000000815260040161089190610e68565b60405180910390fd5b6108a26109ac565b600560159054906101000a900460ff16156108f2576040517f08c379a00000000000000000000000000000000000000000000000000000000081526004016108e9906111d7565b60405180910390fd5b806001908161090191906113a3565b507f0326f6cfcc2461ed08d13f3a1122e6818563b0b5dff401f21236901bd4c08a95600160405161093291906114f9565b60405180910390a16001600560156101000a81548160ff02191690831515021790555061095d6109f2565b50565b600360009054906101000a900473ffffffffffffffffffffffffffffffffffffffff1681565b600260009054906101000a900473ffffffffffffffffffffffffffffffffffffffff1681565b6002600054036109e8576040517f3ee5aeb500000000000000000000000000000000000000000000000000000000815260040160405180910390fd5b6002600081905550565b6001600081905550565b600081519050919050565b600082825260208201905092915050565b60005b83811015610a36578082015181840152602081019050610a1b565b60008484015250505050565b6000601f19601f8301169050919050565b6000610a5e826109fc565b610a688185610a07565b9350610a78818560208601610a18565b610a8181610a42565b840191505092915050565b60006020820190508181036000830152610aa68184610a53565b905092915050565b6000604051905090565b600080fd5b600080fd5b6000819050919050565b610ad581610ac2565b8114610ae057600080fd5b50565b600081359050610af281610acc565b92915050565b600060208284031215610b0e57610b0d610ab8565b5b6000610b1c84828501610ae3565b91505092915050565b600080fd5b600080fd5b7f4e487b7100000000000000000000000000000000000000000000000000000000600052604160045260246000fd5b610b6782610a42565b810181811067ffffffffffffffff82111715610b8657610b85610b2f565b5b80604052505050565b6000610b99610aae565b9050610ba58282610b5e565b919050565b600067ffffffffffffffff821115610bc557610bc4610b2f565b5b610bce82610a42565b9050602081019050919050565b82818337600083830152505050565b6000610bfd610bf884610baa565b610b8f565b905082815260208101848484011115610c1957610c18610b2a565b5b610c24848285610bdb565b509392505050565b600082601f830112610c4157610c40610b25565b5b8135610c51848260208601610bea565b91505092915050565b600060208284031215610c7057610c6f610ab8565b5b600082013567ffffffffffffffff811115610c8e57610c8d610abd565b5b610c9a84828501610c2c565b91505092915050565b600073ffffffffffffffffffffffffffffffffffffffff82169050919050565b6000610cce82610ca3565b9050919050565b610cde81610cc3565b82525050565b6000602082019050610cf96000830184610cd5565b92915050565b610d0881610cc3565b8114610d1357600080fd5b50565b600081359050610d2581610cff565b92915050565b6000610d3682610ca3565b9050919050565b610d4681610d2b565b8114610d5157600080fd5b50565b600081359050610d6381610d3d565b92915050565b600080600060608486031215610d8257610d81610ab8565b5b6000610d9086828701610d16565b9350506020610da186828701610d54565b9250506040610db286828701610d16565b9150509250925092565b7f4e487b7100000000000000000000000000000000000000000000000000000000600052602260045260246000fd5b60006002820490506001821680610e0357607f821691505b602082108103610e1657610e15610dbc565b5b50919050565b7f43616c6c6572206973206e6f7420746865206f7261636c650000000000000000600082015250565b6000610e52601883610a07565b9150610e5d82610e1c565b602082019050919050565b60006020820190508181036000830152610e8181610e45565b9050919050565b7f66756e6374696f6e20616c72656164792063616c6c65642c20796f752073686f60008201527f756c646e7420626520646f696e6720746869732e000000000000000000000000602082015250565b6000610ee4603483610a07565b9150610eef82610e88565b604082019050919050565b60006020820190508181036000830152610f1381610ed7565b9050919050565b7f496e76616c69642066756e6374696f6e2063616c6c2c206d6f6e65726f20726560008201527f6365697665642068617320746f2062652067726561746572207468616e203000602082015250565b6000610f76603f83610a07565b9150610f8182610f1a565b604082019050919050565b60006020820190508181036000830152610fa581610f69565b9050919050565b610fb581610ac2565b82525050565b6000602082019050610fd06000830184610fac565b92915050565b6000604082019050610feb6000830185610fac565b610ff86020830184610cd5565b9392505050565b60008151905061100e81610acc565b92915050565b60006020828403121561102a57611029610ab8565b5b600061103884828501610fff565b91505092915050565b7f416464726573732047656e65726174696f6e204661696c75726520616c72656160008201527f64792063616c6c65640000000000000000000000000000000000000000000000602082015250565b600061109d602983610a07565b91506110a882611041565b604082019050919050565b600060208201905081810360008301526110cc81611090565b9050919050565b7f53776170204661696c75726520636f6e6669726d6174696f6e20616c7265616460008201527f792063616c6c6564000000000000000000000000000000000000000000000000602082015250565b600061112f602883610a07565b915061113a826110d3565b604082019050919050565b6000602082019050818103600083015261115e81611122565b9050919050565b7f416464726573732067656e65726174696f6e207375636365737320616c72656160008201527f64792063616c6c65640000000000000000000000000000000000000000000000602082015250565b60006111c1602983610a07565b91506111cc82611165565b604082019050919050565b600060208201905081810360008301526111f0816111b4565b9050919050565b60008190508160005260206000209050919050565b60006020601f8301049050919050565b600082821b905092915050565b6000600883026112597fffffffffffffffffffffffffffffffffffffffffffffffffffffffffffffffff8261121c565b611263868361121c565b95508019841693508086168417925050509392505050565b6000819050919050565b60006112a061129b61129684610ac2565b61127b565b610ac2565b9050919050565b6000819050919050565b6112ba83611285565b6112ce6112c6826112a7565b848454611229565b825550505050565b600090565b6112e36112d6565b6112ee8184846112b1565b505050565b5b81811015611312576113076000826112db565b6001810190506112f4565b5050565b601f82111561135757611328816111f7565b6113318461120c565b81016020851015611340578190505b61135461134c8561120c565b8301826112f3565b50505b505050565b600082821c905092915050565b600061137a6000198460080261135c565b1980831691505092915050565b60006113938383611369565b9150826002028217905092915050565b6113ac826109fc565b67ffffffffffffffff8111156113c5576113c4610b2f565b5b6113cf8254610deb565b6113da828285611316565b600060209050601f83116001811461140d57600084156113fb578287015190505b6114058582611387565b86555061146d565b601f19841661141b866111f7565b60005b828110156114435784890151825560018201915060208501945060208101905061141e565b86831015611460578489015161145c601f891682611369565b8355505b6001600288020188555050505b505050505050565b6000815461148281610deb565b61148c8186610a07565b945060018216600081146114a757600181146114bd576114f0565b60ff1983168652811515602002860193506114f0565b6114c6856111f7565b60005b838110156114e8578154818901526001820191506020810190506114c9565b808801955050505b50505092915050565b600060208201905081810360008301526115138184611475565b90509291505056fea26469706673582212208c28ad0dd8b140053d9819bc57485d0d057120f9164b72737122e16a0fea409e64736f6c634300081b0033",
  "linkReferences": {},
  "deployedLinkReferences": {}
}